:020000040800F2
:10000000E8D501209D010008053700087127000888
:100010000137000825100008454F000800000000C7
:10002000000000000000000000000000194A000865
:100030000916000800000000953700083D4B000835
:10004000B7010008B7010008B7010008B7010008B0
:10005000B7010008B7010008B7010008B7010008A0
:10006000B7010008B7010008B7010008B701000890
:10007000B7010008B7010008B7010008B701000880
:10008000B7010008B7010008B7010008B701000870
:10009000B7010008B7010008B7010008B701000860
:1000A000B7010008B7010008B7010008B701000850
:1000B000B70100086D4C0008F54C0008B7010008B6
:1000C000B7010008B7010008B7010008B701000830
:1000D000B7010008B7010008B7010008B701000820
:1000E000B7010008B7010008B7010008B701000810
:1000F000B7010008B7010008B7010008B701000800
:10010000B70100083D3B0008B7010008B70100082F
:10011000B7010008B7010008B7010008B7010008DF
:10012000B7010008B7010008B7010008F512000880
:10013000B7010008B7010008B7010008B7010008BF
:10014000B7010008B7010008B7010008B7010008AF
:10015000B7010008B7010008B7010008B70100089F
:10016000B7010008B7010008B7010008B70100088F
:10017000B7010008B7010008B7010008B70100087F
:10018000B7010008B7010008DFF80CD000F056FBFB
:100190000048004731970008E8D50120064880470D
:1001A00006480047FEE7FEE7FEE7FEE7FEE7FEE75C
:1001B000FEE7FEE7FEE7FEE7A94B0008890100081D
:1001C0002DE9F05F0546002092469B46884606468C
:1001D000814640241BE0284641464746224600F01F
:1001E000B1F953465A46C01A914110D311461846E8
:1001F000224600F098F92D1A67EB01084F46224677
:100200000120002100F08FF917EB00094E41201E5C
:10021000A4F10104DFDC484631462A464346BDE8E6
:10022000F09F40EA01039B0703D009E008C9121FB1
:1002300008C0042AFAD203E011F8013B00F8013BA0
:10024000521EF9D27047D2B201E000F8012B491ECC
:10025000FBD270470022F6E710B513460A46044663
:100260001946FFF7F0FF204610BD421C10F8011B95
:100270000029FBD1801A704710B5002200E0521C03
:10028000835C8C5CA34201D1002BF8D1D8B2E1B2DF
:10029000401A10BD30B504460020034600E05B1C48
:1002A000934203D2E05CCD5C401BF8D030BD0346E6
:1002B00011F8012B00F8012B002AF9D118467047DC
:1002C00070B50F4D00B92868002412E00A4602E01C
:1002D0009E4203D0521C1378002BF9D1DAB222438C
:1002E00005D02BB124B1002100F8011B04E0044625
:1002F000401C0678002EE9D12860204670BD000021
:10030000DC02002070B5064604F042FE0468054693
:100310000A220021304600F025F92C6070BD2DE93D
:10032000FE4F81EA030404F0004421F000410094F0
:100330004FF0000B23F0004350EA01045ED052EA74
:1003400003045BD0C3F30A54C1F30A552C44A4F24E
:10035000F3340194A0FB0254C1F3130141F4801162
:10036000C3F3130343F4801301FB024400FB034E69
:10037000840A970A44EA815447EA8357A4FB076832
:1003800002958D0A05FB07854FEA932C04FB0C545C
:100390002705029D4FEA065847EA1637B5EB0805D0
:1003A0006EEB070C870E920E47EA811742EA831222
:1003B000A7FB0201B6EB0B0164EB00042B0D43EA33
:1003C0000C335E1844EB1C50DA465146E7FB020141
:1003D000C5F313044FEA0B3343EA14534FEA0432D4
:1003E000019C43EA0603A4F10C040294009CCDE9AD
:1003F00000B400F0FEF803B0BDE8F08F0020014625
:10040000F9E72DE9F04D81EA030404F0004B21F0F7
:10041000004514464FF0000A23F0004150EA05025F
:1004200020D054EA01021DD0C5F30A570246C5F395
:100430001303C1F31300C1F30A5640F4801543F4CB
:100440008013A7EB0608101BD64608F2FD3873EBA5
:10045000050002D308F1010801E092185B41B8F1F0
:10046000000F03DA00200146BDE8F08D00204FF4B4
:100470008011064684460EE0171B73EB050705D373
:10048000121B63EB050306434CEA010C49084FEAD3
:10049000300092185B4150EA0107EDD152EA0300A7
:1004A00012D082EA040083EA0501084305D0101B3C
:1004B000AB4106D20122002306E000224FF00043A8
:1004C00002E06FF0010253101AEB06004CEB0851EA
:1004D00010EB0A0041EB0B01BDE8F04D00F07AB8DB
:1004E0000EB540F2334102910021CDE900110A46D8
:1004F0000B4600F07EF803B000BD30B50B46014658
:1005000000202022012409E021FA02F59D4205D3B2
:1005100003FA02F5491B04FA02F52844151EA2F15C
:100520000102F1DC30BD202A04DB203A00FA02F19E
:10053000002070479140C2F1200320FA03F31943D1
:1005400090407047202A04DB203A21FA02F0002173
:10055000704721FA02F3D040C2F1200291400843D3
:10056000194670472DE9F04791460F4680460446EC
:10057000002614F8015B2DB100F084F90068405D9D
:10058000C007F6D12B2D02D02D2D18D0641E4A465F
:100590003946204600F07AF927B13968A14201D1E5
:1005A000C7F8008071054FF002040BD540420028C7
:1005B00003DD04F0EDFC0460A007BDE8F08746F41D
:1005C0008066E4E70028F8DA04F0E2FC04606FF0EB
:1005D0000040F2E710B5141E73F1000408DA401C65
:1005E00041F1000192185B411A4301D120F0010052
:1005F00010BD2DE9F04D92469B4611B1B1FA81F242
:1006000002E0B0FA80F220329046FFF78CFF0446F9
:100610000F4640EA0A0041EA0B0153465A46084396
:1006200013D0114653EA010019D0C8F140025046D8
:10063000FFF788FF05460E46504659464246FFF7EB
:1006400072FF084305D0012004E020463946BDE88A
:10065000F08D0020054346EAE0762C4337430A98A4
:100660006305E40AA0EB08000022FD0A44EA4754AF
:100670000A3002D500200146E9E701051019694159
:10068000DDE9084500196941BDE8F04DA2E72DE913
:10069000FE4F804681EA0300C00F0C46009021F017
:1006A000004123F00045B8EB0200A94105D24046C5
:1006B000214690461C460B46024623F0004010435C
:1006C00047D0270DC7F30A00C3F30A510290401A1E
:1006D000019040286BDAC3F3130040F4801B0098AC
:1006E000924620B10023D2EB030A63EB0B0B019877
:1006F0005946C0F140025046FFF715FF06460D4629
:1007000050465946019A00F0ABF810EB08006141E1
:10071000002487EA115284EAE7731A4340D0009A12
:1007200062B3019A012A4FEA075215DC001B61EB04
:1007300002014FF0004202EA0752CDE90042001CDC
:1007400041F5801132462B46FFF753FF03B0BDE859
:10075000F08F40462146F9E7001B61EB0201001CC7
:1007600041F5801300185B412018A2F5001747EBF4
:10077000030140EAD570B6196D4111E06D084FEAEA
:10078000360645EAC0754FEA0752001B61EB0201CD
:10079000001C41F5801149084FEA30000019514111
:1007A00032462B4603B0BDE8F04FFFF713BF009869
:1007B000012240000023D0EB020263EBE0730098BB
:1007C00021464FEAE074B8EB000061EB0401E9E771
:1007D00083F000435BE781F0004158E7C1F30A5220
:1007E000C1F3130140F2FF3341F480119A4202DA5F
:1007F00000200146704740F233439A42A2F233424E
:1008000002DC5242FFF79EBEFFF78DBE30B5041EDC
:1008100071F1000404DB4FF00044404264EB01013D
:10082000141E73F1000405DB1C464FF000435242D6
:1008300063EB0403994208BF904230BD064C074D5C
:1008400006E0E06840F0010394E8070098471034A0
:10085000AC42F6D3FFF79CFCB8BE0308D8BE030831
:10086000202A06DBCB17203A41FA02F043EAE07374
:1008700006E041FA02F3D040C2F120029140084361
:100880001946704700487047E8BD03082DE9F05F3E
:1008900082460078002715468B460AF10104B946C6
:1008A000302801D09DB113E014F8010B01277828FE
:1008B00003D0582801D045B10AE00DB1102D07D161
:1008C0000027102514F8010B02E0082500E00A2596
:1008D0000026B0460EE005FB080005FB06F10127E7
:1008E00001EB10461FFA80F8B6F5803F00D3B946F9
:1008F00014F8010B294600F018F80028EBDABBF1D8
:10090000000F05D00FB1641E00E05446CBF8004044
:10091000B9F1000F06D004F03BFB02210160C81EB4
:10092000BDE8F09F48EA0640FAE73A2800D230389E
:1009300020F02002412A01D3A2F13700884201D3DE
:100940004FF0FF30704770B58C1810F8015B15F050
:10095000070301D110F8013B2A1106D110F8012B31
:1009600003E010F8016B01F8016B5B1EF9D12B0756
:1009700005D40023521E0DD401F8013BFAE710F80C
:10098000013BCB1A921C03E013F8015B01F8015BF9
:10099000521EF9D5A142D8D3002070BD10B54FF436
:1009A00000413A4801F0D0FE4FF48041384801F050
:1009B000C9FE0421374801F0C5FE0421364801F084
:1009C000C1FE0621002000F0BDF90021022000F048
:1009D000B9F9F021032000F0B5F90021042000F05E
:1009E000B1F90A2005F0A8F94FF40041274801F0B9
:1009F000A9FE4FF48041264801F0A6FE04212548B7
:100A000001F0A0FE0621002000F0F0F900210220F4
:100A100000F0ECF9F021032000F0E8F900210420B7
:100A200000F0E4F90A2005F087F94FF40041174877
:100A300001F088FE4FF48041154801F083FE042147
:100A4000144801F081FE0621002000F025FA002163
:100A5000022000F021FAF021032000F01DFA00210D
:100A6000042000F019FA0A2005F066F94FF400415D
:100A7000064801F069FE4FF48041054801F064FE2C
:100A80000421044801F060FE10BD0000001802407F
:100A900000040240000802400010024070B5082522
:100AA00000240821154801F04DFE1DE06006040EEB
:100AB0000821124801F048FE032005F059F90821E9
:100AC0000E4801F03FFE032005F052F910210B48BB
:100AD00001F03AFE1021094801F02BFE10B144F05C
:100AE000010401E004F0FE042800A5F10101CDB2EB
:100AF000DCD1032005F03CF9204670BD0004024023
:100B000070B5082500240121154801F01BFE1DE0E9
:100B10006006040E0121124801F016FE032005F0C4
:100B200027F901210E4801F00DFE032005F020F900
:100B300040210B4801F008FE4021094801F0F9FD71
:100B400010B144F0010401E004F0FE042800A5F116
:100B50000101CDB2DCD1032005F00AF9204670BDB9
:100B60000008024070B5082500240821164801F04D
:100B7000E9FD1FE06006040E0821134801F0E4FDC2
:100B8000032005F0F5F808210F4801F0DBFD0320F4
:100B900005F0EEF84FF400410C4801F0D5FD4FF49C
:100BA00000410A4801F0C5FD10B144F0010401E024
:100BB00004F0FE042800A5F10101CDB2DAD1032032
:100BC00005F0D6F8204670BD000002400004024047
:100BD00010B500203E4988604860086004213D4807
:100BE00001F0B0FD00BF08213B4801F0A2FD50B963
:100BF00001213A4801F09DFD28B94021384801F013
:100C000098FD0028EFD0FC2000F06CF8FC2000F0EC
:100C1000BBF8FC2000F00CF9002000F063F8002085
:100C200000F0B2F8002000F003F9012000F05AF8BB
:100C3000012000F0A9F8012000F0FAF8FFF72EFFDC
:100C40002349096841EA004021490860FFF726FF6F
:100C50001F49096841EA00201D490860FFF71EFF8F
:100C60001B49096808431A490860FFF749FF1849FA
:100C7000496841EA004016494860FFF741FF1449BE
:100C8000496841EA002012494860FFF739FF1049DE
:100C9000496808430E494860FFF764FF0C498968BA
:100CA00041EA00400A498860FFF75CFF084989680B
:100CB00041EA002006498860FFF754FF044989682B
:100CC0000843034988600421024801F03DFD10BD3E
:100CD0009074002000100240000C0240000402400A
:100CE0000000024070B5044608250821144801F0B0
:100CF00029FD1EE004F0800020B12021104801F001
:100D000023FD03E020210E4801F01CFD032005F027
:100D10002FF808210A4801F017FD032005F028F8F4
:100D20000821074801F00EFD032005F021F86006B8
:100D3000040E2800A5F10101CDB2DBD170BD000089
:100D40000004024070B504460D4604210C4801F031
:100D5000F9FC00BF08210B4801F0EBFC0028F9D199
:100D600044F05000FFF7BEFF0020FFF7BBFF28460E
:100D7000FFF7B8FF0421024801F0E6FC70BD000057
:100D800000100240000C024070B504460825012105
:100D9000144801F0D7FC1EE004F0800020B10221CD
:100DA000114801F0D1FC03E002210F4801F0CAFC18
:100DB000032004F0DDFF01210A4801F0C5FC0320F7
:100DC00004F0D6FF0121074801F0BCFC032004F029
:100DD000CFFF6006040E2800A5F10101CDB2DBD1E2
:100DE00070BD0000000802400004024070B50446D7
:100DF0000D4604210C4801F0A5FC00BF01210B4861
:100E000001F097FC0028F9D144F05000FFF7BCFF37
:100E10000020FFF7B9FF2846FFF7B6FF042102487C
:100E200001F092FC70BD000000100240000402407E
:100E300070B5044608250821154801F083FC20E020
:100E400004F0800028B14FF48061124801F07CFC6E
:100E500004E04FF480610F4801F074FC032004F0BB
:100E600087FF08210A4801F06FFC032004F080FF8F
:100E70000821074801F066FC032004F079FF6006B2
:100E8000040E2800A5F10101CDB2D9D170BD00003A
:100E9000000002400014024070B504460D460421D3
:100EA0000C4801F04FFC00BF40210B4801F041FC11
:100EB0000028F9D144F05000FFF7BAFF0020FFF7F7
:100EC000B7FF2846FFF7B4FF0421024801F03CFCBD
:100ED00070BD000000100240000002402DE9F04704
:100EE000044621462CA004F02FF82FA12046FFF73E
:100EF000E7F981462CA10020FFF7E2F981462BA1FA
:100F00004846FFF7B9F908BB27A10020FFF7D8F939
:100F100005462846FFF7F6F9C0EB0010800025498A
:100F2000086008462946026823A004F00DF81EA1B7
:100F30000020FFF7C5F90646012027490860012176
:100F4000264803F002FF00F0FFFA23E024A1484600
:100F5000FFF792F9D8B914A10020FFF7B1F90746BD
:100F6000394621A003F0F0FF0FA10020FFF7A8F9F8
:100F70008046414620A003F0E7FF0BA10020FFF7C9
:100F80009FF90646314620A003F0DEFF02E020A0D4
:100F900003F0DAFFBDE8F087436D64446174613AA1
:100FA0002025730A000000003A0000004D616E75B4
:100FB000616C0000EC0100204475726174696F6E11
:100FC0003A20257320436F6C6C5F447572617469BD
:100FD0006F6E3A2025640A00E401002000080040FA
:100FE0004175746F0000000053746172742054697D
:100FF0006D652025730A0000456E642054696D6597
:101000002025730A000000005350532025730A0066
:10101000496E76616C696420436D6420446174613B
:101020000A00000000BFFEE770B500254FF48034D1
:1010300000E0641E24B1802002F054FD0028F8D0A6
:1010400014B90325284670BD40F2FF5002F006FD9A
:101050002846F8E72DE9F04106460027484805688C
:1010600001E04748056805F045000028F9D005F083
:10107000040030B10327042002F0F0FC3846BDE83C
:10108000F08105F0010028B10127012002F0E6FC03
:101090003846F4E702F020FDB04202D0102738466F
:1010A000EDE740F2FF5002F0D9FC002002F03AFDDB
:1010B00004463448204008B93846E0E704F00040D0
:1010C00008B11C20DBE704F0804008B10920D6E716
:1010D00004F0005008B10A20D1E704F0805008B1B4
:1010E0000B20CCE704F0006008B10C20C7E704F047
:1010F000806008B10D20C2E704F0807008B10E20B6
:10110000BDE704F4000008B10F20B8E704F4800044
:1011100008B11020B3E704F4001008B11120AEE7C5
:1011200004F4801008B11220A9E704F4002008B1EB
:101130001320A4E704F4802008B114209FE704F4EE
:10114000003008B115209AE704F4803008B1162069
:1011500095E704F4004008B1172090E704F48040BC
:1011600008B118208BE704F4005008B1192086E775
:1011700004F0080008B11A2081E738467FE7000034
:10118000342C014008E0FFFD70B5002510480468CC
:1011900001E00F48046804F045000028F9D004F08D
:1011A000040028B10325042002F058FC284670BD35
:1011B00004F0010028B10125012002F04FFC28466F
:1011C000F5E740F2FF5002F049FC2846EFE7000047
:1011D000342C014070B500250B48046801E00A4832
:1011E000046804F045000028F9D004F0040028B198
:1011F0000325042002F032FC284670BD40F2FF5067
:1012000002F02CFC2846F8E7342C01402DE9F0418F
:1012100006460F464FF000082248056801E02148C5
:10122000056805F045000028F9D005F0040038B144
:101230004FF00308042002F011FC4046BDE8F081A5
:1012400005F0010030B14FF00108012002F006FC6A
:101250004046F3E702F040FCB04203D04FF01008E4
:101260004046EBE740F2FF5002F0F8FB002002F0AE
:1012700059FC044604F4604018B9200C38804046FC
:10128000DCE704F4005008B11320D7E704F48040F1
:1012900008B11020D2E704F4004008B10F20CDE7D8
:1012A0004046CBE7342C014070B500264FF4803522
:1012B0000F48046802E06D1E0D48046804F0450004
:1012C00008B9002DF7D115B104F0040028B10326A8
:1012D000042002F0C3FB304670BD04F0400028B18A
:1012E0000026402002F0BAFB3046F5E73046F3E72F
:1012F000342C014010B503F01DF910BD0246094B16
:101300009A4201D2084801E00648103801F0005323
:101310001BB1064B0B40C36002E0044B0B408360E3
:101320007047000010640240006002407D0F7D0F96
:1013300021B1026842F00102026003E0026822F07B
:101340000102026070470000016821F001010160A4
:101350000021016041608160C16001612121416122
:101360004A49884204D13D21484A103A91608CE0B4
:1013700046491831884205D14FF47461434A103A06
:10138000916082E041493031884205D14FF47411B7
:101390003E4A103A916078E03C494831884205D194
:1013A0004FF07461394A103A91606EE0374960310C
:1013B000884204D13649354A103AD16065E0334954
:1013C0007831884204D13349304A103AD1605CE028
:1013D0002E499031884204D12F492C4A103AD160CD
:1013E00053E02A49A831884205D14FF03D51274AA0
:1013F000103AD16049E02949884204D13D21274A69
:10140000083A116041E025491831884205D14FF46E
:101410007461224A083A116037E02049303188422D
:1014200005D14FF474111D4A083A11602DE01B4993
:101430004831884205D14FF07461184A083A11606A
:1014400023E016496031884204D11149134A121F22
:1014500011601AE011497831884204D10D490F4AD0
:10146000121F116011E00D499031884204D10A49E0
:101470000A4A121F116008E00849A831884204D1C5
:101480004FF03D51054A121F116070471060024035
:101490003D000020400F002000003D20106402406D
:1014A00021B1026842F02002026003E0026822F0EB
:1014B00020020260704710B501F080034BB122B1E9
:1014C000436943F08003436103E0436923F08003F1
:1014D000436180290BD02AB1036801F01E04234325
:1014E000036004E0036801F01E04A343036010BD21
:1014F00010B500220268134B1A40CC680B682343D6
:101500004C6923438C692343CC6923430C6A2343EE
:101510004C6A23438C6A23434C6B23438C6B2343D9
:101520001A430260426922F00702D1E90B342343D7
:101530001A4342610B6943604B6883608B68C360E8
:1015400010BD00003F801CF010B5402027490880E6
:10155000802008804000891C088008F00BFB00BF39
:101560000824204601F0F2F8214801682148026869
:101570000068401C1F4B18601F4840F822101C4890
:101580004268184601680068401C18601A4840F814
:10159000212017488168184602680068401C1860BE
:1015A000154840F8221018460068B0F5406F04D185
:1015B00008F048FB00200F49086000F0A7F808B1C8
:1015C00002F096F80D490868496802F063F80C4883
:1015D00000680028C4D10748006808F05DFB09488E
:1015E00005F073FE08F084FB10BD000018140240E3
:1015F00090740020F801002084430020280000207F
:10160000E4010020181300207047000000B587B0E7
:101610000121084602F0C0F80121102002F0FCF878
:1016200007220A211D4801F061F8072209211B4801
:1016300001F05CF800208DF81A0001208DF81B00E5
:1016400002208DF818000002059002208DF8190084
:1016500005A9124801F002F802208DF81800400296
:10166000059005A90D4800F0F9FF4FF4E130019015
:101670000020ADF80800ADF80A00ADF80C00ADF898
:1016800010000C20ADF80E0001A9054803F0ECFB9A
:101690000121034803F0CEFB07B000BD000002406B
:1016A0000010014001B502E00098401E0090009833
:1016B0000028F9D108BD01B502E00098401E009055
:1016C00000980028F9D108BD01B5044900980860C8
:1016D00000BF024800680028FBD108BD7802002046
:1016E00010B500F04BF900F0A3FB0121002000F041
:1016F000D5FC00F0040028B10348006840F0100059
:101700000149086010BD00008C02002034480068C8
:10171000006800F00040E8B931480068006800F453
:101720008070B8B12F4800688068401C2D49096856
:1017300088602C4800688068012804D12848006827
:1017400028490968086026480068264909684860F1
:101750000120704722480068006800F00040F0B99E
:101760001F480068006800F40070C0B11C480068A1
:10177000006800F4807090B9194800681949096838
:101780000860002017490968486001201549096868
:10179000886013480068C068114908601DE010485F
:1017A0000068006800F00040B8B90D4800680068A3
:1017B00000F4007088B90A480068006800F480707E
:1017C00058B9084800688068401C06490968886064
:1017D00003480068C068024908600020B9E70000BB
:1017E000800200208402002070B5054601210020FF
:1017F00000F054FC00F0040444B10B48007828B910
:101800000A4808F030FF0120074908705CB9064813
:10181000007840B1012006490870044808F00EFF26
:1018200000200149087070BD910200204C74002016
:101830009002002030B10749896941F00201054A50
:10184000916105E00349896921F00201014A916132
:10185000704700000090024070B50C46134600210E
:10186000124D286000BF18E000EB41124FF0004518
:10187000156044F2F4555560C1EBC11505EB450503
:1018800004EB850595605D1E8D4204D900EB411582
:101890002035D56000E0D060491C9942E4D3044D66
:1018A000E860044D044E356070BD000080020020E9
:1018B0000090024070A600208402002030B1074949
:1018C000896941F40051054A916105E0034989693C
:1018D00021F40051014A91617047000000900240DC
:1018E00030B50C46134600210F4D286000BF15E0AF
:1018F00000EB41124FF480151560C1EBC11505EBEB
:10190000450504EB850595605D1E8D4204D900EB0D
:1019100041152035D56000E0D060491C9942E7D3DD
:10192000024D286130BD00007C0200200090024082
:1019300002680A430260704710B50121480601F0B1
:101940003BFF00214FF0007001F036FF10BD00009A
:1019500008B5002000900848806940F480100649CE
:1019600088610846806900900120FFF7ADFE0249BA
:101970000098886108BD0000009002401CB501215C
:10198000452001F009FF0121880301F045FF0120F6
:1019900003F044F80420009003208DF80500022095
:1019A0008DF8040000208DF8060001208DF8070056
:1019B0006946324800F052FE0B2202212F4800F007
:1019C00095FE0220009069462D4800F047FE0B224C
:1019D00001212B4800F08AFE02200090694627482A
:1019E00000F03CFE0B220121244800F07FFE802005
:1019F00000906946214800F031FE0B2207211F4864
:101A000000F074FE1020009069461D4800F026FE8C
:101A10000B2204211A4800F069FE2020009069463C
:101A2000174800F01BFE0B220521154800F05EFE52
:101A30004FF4006000906946124800F00FFE0B2240
:101A40001146104800F052FE4FF4005000906946D5
:101A50000C4800F003FE0B220D210A4800F046FE60
:101A60004FF4804000906946064800F0F7FD0B22D5
:101A70000E21044800F03AFE1CBD000000000240A8
:101A8000000802400018024000200449096801F0E3
:101A9000010109B1012000E00020704700900240E0
:101AA0001EB5002100220092019202920C4A126897
:101AB0001268C2F30D42111F00910A4A126812689F
:101AC0000292084A1268126892680192044A1268E7
:101AD000D268034B1A609DE81C0080E81C001EBD04
:101AE00080020020840200202DE9F04188B00446E5
:101AF0000F464FF00008002500200790B54E0290D9
:101B000001200190B448056925F01C0503A801F0E7
:101B1000A3FE049EB148864205D3B148864202D254
:101B200045F008051AE0AE48864205D3A94886422A
:101B300002D245F00C0511E0A648864203D3A9481D
:101B4000864200D20AE0A748864205D3A6488642CC
:101B500002D245F0040501E045F010059E480561FC
:101B60004FF400420021384600F052FB10B900202B
:101B700001906AE0FF20FFF7A7FD2068002850D001
:101B800000BF0298401C02900121384600F086FAFE
:101B900000F0040018B9954902988842F1D393499E
:101BA0000298884202D1002001904EE0002002906D
:101BB0004FF480520021384600F02AFB08B900207B
:101BC000019000BF0298401C02900121384600F0AD
:101BD00065FA00F0200018B9844902988842F1D3D0
:101BE00082490298884202D1002001902DE0002015
:101BF00002901F21384600F051FA804608F010008C
:101C000018B14FF40060206201E00020206208F06B
:101C1000040010B10020606116E04FF48040606164
:101C200012E0206AC0F3CF006169C1F34F0140EABE
:101C300001020021384600F0EBFA08B900200190BB
:101C400040F6FF70FFF740FD00BF019820B94FF448
:101C500000602062C00060615F480568644805401C
:101C6000D4E901010843E168084321690843616937
:101C70000843A1690843E1690843216A0843616A8E
:101C80000843A16A0843E16A0843216B0843616B7A
:101C9000084305435048056005680120FFF714FD1F
:101CA0004D480560D4E90E010843216C0843616C7E
:101CB0000843A16C0843E16C0843216D0843616D42
:101CC000084345494860084645680120FFF7FCFC89
:101CD000414845604049A06D8860E06DC860084695
:101CE00085694FF641700540B4F86010606E40EAB7
:101CF0000140A16E0843E16E0843216F0843616F04
:101D0000084305433448856185690120FFF7DCFC01
:101D100031488561D4E91E0108432F49C86108464E
:101D2000C5690120FFF7D0FC2B48C56131488569A2
:101D300031480540D4E920010843D4F8881008430D
:101D4000D4F88C100843D4F890100843D4F89410B9
:101D50000843D4F898100843D4F89C100843D4F8EA
:101D6000A010084305432348856185690120FFF7DA
:101D7000ABFC20488561D4E929010843D4F8AC10B4
:101D80000843D4F8B0100843D4F8B41040EA8100F6
:101D9000D4F8B810084340F400001649086008461B
:101DA00005680120FFF790FC12480560006840F0CC
:101DB000800010490860084605680120FFF784FC90
:101DC0000C4805600198012802D108B0BDE8F081F7
:101DD0000020FAE70087930300800240002D3101C4
:101DE000C00E160200E1F50580D1F008FFFF0400E7
:101DF0000F8120FF00900240233FDEF810B50B79E1
:101E00004C7943EA0422094B03441A64CB781B063D
:101E10008C7843EA04434C7843EA04230C7843EA81
:101E20000402024B03445A6410BD000000800240CB
:101E300010B501214FF0606001F0AEFCFFF77CFDB2
:101E400000F062F900BFFFF71FFE0128FBD0214818
:101E500000F084F901201F4908600020C8614FF498
:101E6000007088620020C86288634864C86408659E
:101E700048654FF4806048620020C1F880004FF050
:101E80000070C1F884000011C1F88C000020C1F876
:101E90009400C1F898000420C1F8A000C005C1F862
:101EA000A4004012C1F8A8008001C1F8AC004012A3
:101EB000C1F8B0004000C1F8B80007A003F044F832
:101EC00000210448FFF710FE1249086012A003F039
:101ED0003BF810BD7CA600200D0A202A2A2A2A2AB7
:101EE0002A2A2A2A2A4554485F4D4143444D415FDE
:101EF000436F6E6669672064656275672045544864
:101F00005F496E69742A2A2A2A2A2A2A2A2A2A2A10
:101F1000200D0A008C0200200D0A202A2A2A2A2AD3
:101F20002A2A2A2A2A4554485F4D4143444D415F9D
:101F3000436F6E6669672064656275672045544823
:101F40005F496E6974204F4B2A2A2A2A2A2A2A2A94
:101F50002A2A2A200D0A000038B5044600200090E5
:101F600034B10B48006840F004000949086005E0FE
:101F70000748006820F0040005490860044800682C
:101F800000900120FFF7A0FB01490098086038BDD0
:101F90000080024038B504460020009034B10B4860
:101FA000006840F008000949086005E0074800683B
:101FB00020F00800054908600448006800900120EE
:101FC000FFF782FB01490098086038BD008002409D
:101FD00070B502460023002500242E4800680068E2
:101FE00000F0004008B1002070BD2A48016840F2AE
:101FF000F450824208DD92FBF0F392FBF0F600FB16
:10200000162010B15B1C00E00123012B0CD10868E5
:1020100040F040500860C2F30C004860086840F08F
:1020200000400860C96826E0002422E0086820F02B
:10203000405008601CB9086840F08050086040F2C9
:10204000F4504860581EA0420DD1086840F000507E
:102050000860581EC0EBC01000EB4000A2EB8005EA
:10206000C5F30C004860086840F000400860C9688B
:10207000641C9C42DAD3074801600748406900F0BD
:10208000040020B10420044E706100207060012023
:10209000AAE700007C0200200090024018B502462A
:1020A0000B460021002000901548016901F01C0139
:1020B0004FF4784000EAC22001434FF4F86000EA90
:1020C0008310014321F0020141F001010C4801613C
:1020D00000BF0098401C00900948016901F0010010
:1020E00018B1084C0098A042F3D3064C0098A042C7
:1020F00001D1002018BD0248406980B2FAE7000013
:1021000000800240FFFF04000348006840F0010027
:1021100001490860704700000090024010B501209E
:10212000FFF738FF0120FFF717FFFFF711FC012031
:10213000FFF7C4FB0120FFF77DFB10BD10B50020A9
:10214000FFF7BCFB0020FFF775FB0020FFF704FF43
:10215000FFF7FEFB0020FFF71DFF10BD012101600E
:10216000002141608160C16001614FF480414161A3
:1021700000218161C1614FF400610162002141626F
:102180008162C162016341638163C1634021016473
:102190002021416400218164C1640165416581653C
:1021A000C16501668021416600218166C1660167C3
:1021B00041678167C1674FF08061C0F880104910A6
:1021C000C0F884100021C0F888104FF40011C0F846
:1021D0008C100021C0F89010C0F89410C0F898102E
:1021E000C0F89C10C0F8A0104FF00071C0F8A41007
:1021F0004912C0F8A8108901C0F8AC104912C0F803
:10220000B0100021C0F8B410C0F8B810704700003A
:1022100038B503460C46002100200090144801699F
:1022200001F01C014FF4784000EAC32001434FF451
:10223000F86000EA8410014341F0020141F001011D
:102240000B484261016100BF0098401C00900848A3
:10225000016901F0010018B1064D0098A842F3D3BE
:10226000044D0098A84201D1002038BD0120FCE7B0
:1022700000800240FFFF04007FB506460020039067
:1022800096F83100C0F3001000285CD03148006897
:10229000002842D0002003904FF4805200210846CD
:1022A000FFF7B6FF00BF0398401C039001210020F8
:1022B000FFF7F4FE00F0200018B927490398884280
:1022C000F1D3002003901F21FFF7E8FE044604F03D
:1022D000100020B14FF400601E49086202E00020A7
:1022E0001C49086204F0040018B100201949486133
:1022F00003E04FF4804017494861184805681548C5
:1023000040691449096A08430543144805600120DF
:10231000FFF7DAF9114805680560FFF7FFFE10487E
:1023200002906FF07F4001900E4800906B4601AA2A
:1023300002A90D4808F046F90B4808F0C2F9002040
:102340000A49087004E0FFF7F9FE074808F052F95F
:102350007FBD00007CA60020FFFF0400008002403B
:10236000C0A80069C0A800014C74002090020020A1
:1023700051B18200A2F1C042126842F00103820012
:10238000A2F1C042136009E08200A2F1C0421268CB
:10239000034B1A408300A3F1C0431A60704700004A
:1023A000FEFF0F0030B50021002200230468A400C6
:1023B000A4F1C0442168424C2140D0E901452C439E
:1023C000C5682C4305692C4345692C4385692C431A
:1023D000C5692C43056A2C43456A2C43856A2C4306
:1023E000C56A2C43056B2C4321430468A400A4F167
:1023F000C04421608468082C0BD10468A400A4F1B7
:10240000C044246844F040050468A400A4F1C0441A
:1024100025600468641CA400A4F1C044226802F092
:102420004042446B2468456B6D6844EA0514456B73
:10243000AD6844EA0524456BAD8944EA0544456B23
:102440002D8A44EA0554456B2D7D44EA0564456BAD
:10245000AD692C4322430468641CA400A4F1C04469
:102460002260C46AB4F5804F20D10468A400A4F1AE
:10247000C044D4F80431134C2340846B2468856B2A
:102480006D6844EA0514856BAD6844EA0524856BE4
:10249000AD8944EA0544856BAD692C432343046848
:1024A000A400A4F1C044C4F8043107E06FF0704503
:1024B0000468A400A4F1C044C4F8045130BD000075
:1024C0008000F7FF0000F0CF2DE9FC4107460D46E4
:1024D0000026002400200090019008205B4908603D
:1024E00010204860402088600020C8604FF4806061
:1024F0000861084601F054FB1020FEF7ABFD0446CE
:1025000014B12046BDE8FC815148008800044F49C1
:10251000086037204860402088600020C8604FF481
:1025200080600861084601F03BFB3720FEF792FD12
:1025300004460CB12046E5E74FF0FF3045490860FE
:1025400008204860302088600220C86000200861B0
:1025500001204861084601F099FA00203B490860D3
:1025600033204860402088600020C8604FF48060BD
:102570000861084601F014FB3320FEF76BFD0446AA
:102580000CB12046BEE709E04FF4001001F0AAFAB2
:1025900020B101F0FFFA4DF82600761C2E480068A5
:1025A00040F22A6108400028EED0082001F09AFA93
:1025B00028B1082001F052FA04242046A2E70220A4
:1025C00001F090FA28B1022001F048FA02242046D6
:1025D00098E7202001F086FA28B1202001F03EFA89
:1025E000062420468EE74FF4007001F07BFA30B1EC
:1025F0004FF4007001F032FA0724204682E740F2DF
:10260000FF5001F02BFA00980006009901F47F4179
:1026100040EA0120009901F47F0140EA112000996D
:1026200040EA1160686001980006019901F47F4159
:1026300040EA0120019901F47F0140EA112001994B
:1026400040EA1160286020465CE7000040750020E9
:102650005802002054750020342C0140F0B50A4681
:1026600000210023002400BF3DE0012505FA01F30D
:10267000156805EA03049C4234D105684F0003261F
:10268000BE40B543056015794E00B5400668354338
:1026900005601579012D02D01579022D16D18568B6
:1026A0004F000326BE40B543856055794E00B540C6
:1026B000866835438560456801268E40B543456090
:1026C000456896798E40B6B235434560C5684F007F
:1026D0000326BE40B543C560D5794E00B540C668F7
:1026E0003543C560491C1029BFD3F0BDF0B50023A8
:1026F00000244D07ED0E02FA05F3CE1000F120057F
:1027000055F826504E07F70E0F26BE40B543CF10A2
:1027100000F1200646F82750CE1000F1200555F8AC
:10272000265045EA0304CE1000F1200545F8264066
:10273000F0BD0246002013690B400BB1012000E000
:1027400000207047418370470183704710B50446ED
:1027500021460120FEF7F6FA21460120FEF746FB4E
:1027600021460120FEF798FBFEF732FA10BD00006B
:1027700003A002F0E9FB06A000F086FE00BFFEE722
:10278000686172646661756C742121210A00000021
:10279000686172646661756C6521210010B504463C
:1027A0002CB14FF400710548FFF7CEFF04E04FF461
:1027B00000710248FFF7C6FF10BD00000014024080
:1027C0002DE9F04106460F4614461D462B4622468B
:1027D0003946304600F070FA04FB05F002490988DA
:1027E00000F0BEF8BDE8F0815202002001B502E021
:1027F0000098401E009000980028F9D108BD000004
:102800002DE9F05F804689461646A6F120001FFAA2
:1028100080FA1E49096889881C4A1268D28801FB1F
:1028200002F0C11700EB5171C1F3C70717480068E8
:1028300000680AFB070B15480068C3881348006846
:1028400082884946404600F037FA2C2000F02EFCE2
:10285000002416E0002510E01BF804008021294127
:10286000084020B10A48008800F024FC03E0094831
:10287000008800F01FFC681CC5B2082DECDB601C52
:10288000C4B2BC42E6DBBDE8F09F00004C02002071
:10289000500200205202002070B504460D4600266A
:1028A00024E0304613490968898808441249098898
:1028B000884205DD00260F480068C088204484B2A5
:1028C00020460C490968C98808440C49098888428F
:1028D00001DD002600242A7821463046FFF790FFCC
:1028E0006D1C044800688088304486B2287800282F
:1028F000D7D170BD4C0200204402002046020020C7
:1029000000B597B00121084600F066FF0420019051
:102910000390800607900020029004900590069096
:10292000042008900020099008200A9010200B90A5
:1029300000200C900E900F9010904FF4805011904A
:10294000002012901390149001A81590169008A8DA
:10295000FFF728FD01210420FFF70AFD17B000BD95
:1029600070B504460D4600262C2000F09FFB00BFEA
:1029700003E0284600F09EFB761CA642F9D370BD0A
:102980001CB50121782000F007FF00208DF806001B
:1029900001208DF8070002208DF8040003208DF837
:1029A00005004FF48040009069468048FFF756FECE
:1029B0000C220E217D48FFF799FE4FF40040009055
:1029C00069467A48FFF74AFE0C220F217748FFF745
:1029D0008DFE0120009069467448FFF73FFE0C22EF
:1029E00000217248FFF782FE0220009069466F487E
:1029F000FFF734FE0C2201216C48FFF777FE8020A0
:102A0000009069466A48FFF729FE0C2207216848B2
:102A1000FFF76CFE4FF48070009069466448FFF742
:102A20001DFE0C2208216248FFF760FE4FF4007083
:102A3000009069465E48FFF711FE0C2209215C48B0
:102A4000FFF754FE4FF48060009069465848FFF746
:102A500005FE0C220A215648FFF748FE4FF400609D
:102A6000009069465248FFF7F9FD0C220B215048AF
:102A7000FFF73CFE4FF48050009069464C48FFF74A
:102A8000EDFD0C2211464A48FFF730FE4FF400508E
:102A9000009069464648FFF7E1FD0C220D214448AD
:102AA000FFF724FE4FF48040009069464048FFF74E
:102AB000D5FD0C220E213E48FFF718FE4FF40040D2
:102AC000009069463A48FFF7C9FD0C220F213848AB
:102AD000FFF70CFE4FF48070009069463348FFF713
:102AE000BDFD0C2208213148FFF700FE4FF40070B5
:102AF000009069462D48FFF7B1FD0C2209212B48B3
:102B0000FFF7F4FD4FF48060009069462748FFF717
:102B1000A5FD0C220A212548FFF7E8FD10200090B2
:102B200069462248FFF79AFD0C2204211F48FFF74F
:102B3000DDFD2020009069461C48FFF78FFD0C2228
:102B400005211A48FFF7D2FD4FF4806000906946D6
:102B50001848FFF783FD0C220A211648FFF7C6FD2F
:102B60000120009069461448FFF778FD0C220021EF
:102B70001148FFF7BBFD01208DF8040000208DF8FF
:102B8000060001208DF8070002208DF80500800264
:102B9000009069460848FFF761FD4FF4007000900F
:102BA00069460548FFF75AFD1CBD0000000C0240B5
:102BB00000100240001802400014024010B5044604
:102BC000072C00DD10BD29480470204604EBD071AD
:102BD0004910A4EB410141B94FF4F0702449088039
:102BE00040F256302349088007E040F25630204931
:102BF00008804FF4F0701F490880362000F056FA24
:102C0000002141EA441000F055FA2A2000F04EFA63
:102C1000002000F04FFA002000F04CFA1449098817
:102C2000491EC1F3072000F045FA11490978491EF1
:102C3000C8B200F03FFA2B2000F038FA002000F074
:102C400039FA002000F036FA0A490988491EC1F312
:102C5000072000F02FFA07490978491EC8B200F092
:102C600029FA2C2000F022FA00BFABE7480200202E
:102C7000440200204602002010B5FFF781FEFFF756
:102C80003FFE00F0FDF900F047F808480078FFF734
:102C900095FF074803880748028800210846FFF788
:102CA0008FFD0120FFF77AFD10BD000048020020D3
:102CB00046020020440200202DE9F04104460D4662
:102CC00016461F462A2000F0F1F9201200F0F2F912
:102CD000E0B200F0EFF9A119491EC1F30F2000F096
:102CE000E9F9A119491EC8B200F0E4F92B2000F05F
:102CF000DDF9281200F0DEF9E8B200F0DBF9E9199D
:102D0000491EC1F30F2000F0D5F9E919491EC8B2D8
:102D100000F0D0F9BDE8F08110B54FF4A040FEF707
:102D2000CAFCFF2000F0C2F9FF2000F0C3F9982090
:102D300000F0C0F9062000F0BDF94FF4A040FEF706
:102D4000BAFCBC2000F0B2F9012000F0B3F90E206B
:102D500000F0B0F9612000F0ADF9FB2000F0AAF915
:102D6000102000F0A7F9102000F0A4F90B2000F0CB
:102D7000A1F90F2000F09EF92E2000F09BF973209E
:102D800000F098F9FF2000F095F9FF2000F092F98B
:102D90000E2000F08FF90E2000F08CF9002000F0DA
:102DA00089F9032000F086F9662000F083F963209A
:102DB00000F080F9012000F07DF9002000F07AF9A0
:102DC000002000F077F94FF4A040FEF774FCBD201E
:102DD00000F06CF9012000F06DF9232000F06AF991
:102DE000452000F067F9672000F064F9012000F049
:102DF00061F9232000F05EF9452000F05BF96720BF
:102E000000F058F94FF4A040FEF755FCBE2000F04A
:102E10004DF9002000F04EF9212000F04BF9AB20D5
:102E200000F048F9602000F045F9222000F042F956
:102E3000222000F03FF9222000F03CF9222000F08F
:102E400039F9222000F036F94FF4A040FEF733FCA8
:102E5000C72000F02BF96F2000F02CF94FF4A040B0
:102E6000FEF729FCED2000F021F97F2000F022F987
:102E70000F2000F01FF9002000F01CF94FF4A040D3
:102E8000FEF719FCC02000F011F9372000F012F90C
:102E90000B2000F00FF90A2000F00CF94FF4A040CD
:102EA000FEF709FCFC2000F001F90A2000F002F90D
:102EB0004FF4A040FEF7FFFBDF2000F0F7F8002002
:102EC00000F0F8F8002000F0F5F8002000F0F2F82B
:102ED000002000F0EFF8002000F0ECF8202000F0D7
:102EE000E9F84FF4A040FEF7E6FBF32000F0DEF82F
:102EF000742000F0DFF8B42000F0D8F8002000F0D3
:102F0000D9F8002000F0D6F8002000F0D3F8F72020
:102F100000F0CCF8892000F0CDF8B12000F0C6F820
:102F2000002000F0C7F8122000F0C4F8102000F0D4
:102F3000C1F8F22000F0BAF8802000F0BBF85B2066
:102F400000F0B8F8402000F0B5F8282000F0B2F802
:102F50004FF4A040FEF7AFFBC12000F0A7F8172008
:102F600000F0A8F87D2000F0A5F87A2000F0A2F883
:102F7000202000F09FF84FF4A040FEF79CFBE020DB
:102F800000F094F8002000F095F8112000F092F87D
:102F90001C2000F08FF80E2000F08CF80F2000F0BD
:102FA00089F80C2000F086F8C72000F083F806208E
:102FB00000F080F8062000F07DF80A2000F07AF892
:102FC000102000F077F8122000F074F80A2000F0CA
:102FD00071F8102000F06EF8022000F06BF800206D
:102FE00000F068F84FF4A040FEF765FBE12000F028
:102FF0005DF8002000F05EF8122000F05BF8182069
:1030000000F058F80C2000F055F80F2000F052F8AE
:103010000A2000F04FF8772000F04CF8062000F06E
:1030200049F8072000F046F80A2000F043F80E2087
:1030300000F040F80B2000F03DF8102000F03AF8C6
:103040001D2000F037F8172000F034F8002000F0C1
:1030500031F8352000F02AF8002000F02BF83A2053
:1030600000F024F8552000F025F8112000F01EF89B
:103070004FF4A040FEF71FFB292000F017F810BD09
:1030800010B54FF400610848FFF75CFB40F6FF20E5
:10309000FFF7ACFB4FF400610348FFF755FB40F628
:1030A000FF20FFF7A3FB10BD001402404FF0D041FA
:1030B000088070474FF0D041488070471CB501210F
:1030C000022000F069FB0820009001208DF8040028
:1030D00000208DF8060002208DF8050001208DF8F3
:1030E00007006946B548FFF7B9FA0121022000F050
:1030F00053FB2020009001208DF8040000208DF863
:10310000060002208DF8050001208DF807006946B1
:10311000AA48FFF7A3FA0121022000F03DFB10208E
:10312000009000208DF8040002208DF80500012099
:103130008DF807006946A148FFF790FA01210820A1
:1031400000F02AFB0820009000208DF804000220E7
:103150008DF8050001208DF8070069469848FFF7B3
:103160007DFA0121102000F017FB042000900120BF
:103170008DF8040000208DF8060002208DF805006F
:1031800001208DF8070069468E48FFF767FA012194
:10319000402000F001FB4FF40040009001208DF82A
:1031A000040000208DF8060002208DF805000120A3
:1031B0008DF8070069468448FFF750FA0121042082
:1031C00000F0EAFA012000908DF8040000208DF84C
:1031D000060002208DF8050001208DF807006946E1
:1031E0007A48FFF73BFA0121022000F0D5FA0220CD
:1031F000009001208DF8040000208DF806000220C8
:103200008DF8050001208DF8070069466B48FFF72F
:1032100025FA0121042000F0BFFA40200090002090
:103220008DF8040002208DF8050001208DF80700BC
:1032300069466648FFF712FA0121022000F0ACFA55
:103240000120009000208DF8040002208DF8050078
:1032500001208DF8070069465848FFF7FFF9012162
:10326000102000F099FA0420009001208DF804004D
:1032700000208DF8060002208DF8050001208DF851
:10328000070069464F48FFF7E9F90121022000F0E5
:1032900083FA4FF48040009001208DF80400002054
:1032A0008DF8060002208DF8050001208DF807003A
:1032B00069464248FFF7D2F90121084600F06CFA4E
:1032C0000820009001208DF8040000208DF80600F1
:1032D00002208DF8050001208DF8070069463C4862
:1032E000FFF7BCF90121202000F056FA4FF480606E
:1032F000009001208DF8040000208DF806000220C7
:103300008DF8050001208DF8070069463148FFF768
:10331000A5F90121022000F03FFA4FF4004000908F
:1033200000208DF8040002208DF8050001208DF8A2
:10333000070069462148FFF791F90121084600F08E
:103340002BFA4020009000208DF8040002208DF818
:10335000050001208DF8070069461D48FFF77EF93A
:103360000121102000F018FA0420009001208DF8AF
:10337000040000208DF8060002208DF805000120D1
:103380008DF8070069460F48FFF768F9012104200E
:1033900000F002FA0420009001208DF804000020C3
:1033A0008DF8060002208DF8050001208DF8070039
:1033B00069460648FFF752F91CBD000000040240B0
:1033C000000C0240001002400018024000080240B9
:1033D00000000240001402401CB50121052000F04D
:1033E000DBF90120009000208DF804008DF8070023
:1033F00069460548FFF732F94FF4005000906946DE
:103400000248FFF72BF91CBD0000024000080240F3
:1034100010B5104800F05CF800214FF4784000F03F
:103420004DF80D4803880D48028800210846FFF733
:10343000C7F900F03DF8C08809490A880968491CA5
:10344000074B504384B2196006A12046FFF724FAC7
:1034500010BD00003402002046020020440200207B
:10346000E0010020395F63685F3234626974207361
:10347000797374656D20737461727420696E6974F8
:103480002E2E2E2E0000000070B5044600F010F81D
:10349000C08806490A880968491C044B504385B214
:1034A000196021462846FFF7F7F970BDE0010020BA
:1034B00001480068704700004C020020024A10805A
:1034C000024A118070470000500200205202002082
:1034D00001490860704700004C0200201CB5012122
:1034E000202000F059F94020009001208DF80400C0
:1034F00000208DF8060001208DF8070000208DF8CF
:10350000050069460C48FFF7A9F88020009069463D
:103510000948FFF7A3F84FF4807000906946064809
:10352000FFF79CF84020044918310880802008806B
:10353000400008801CBD00000014024000B587B0A8
:1035400006F076FD06F0C8FE274806906FF07F4033
:1035500005902648049026482649002204ABCDE970
:103560000021029005AA06A9234806F0F3FF22488D
:1035700007F03AF821480068112826D11E4890F833
:10358000310040F010001C4981F83100084607F076
:1035900098F81BA001F0D8FC69200023A822C021C4
:1035A00000901EA001F0D0FC0020FF231A4619460F
:1035B00000901FA001F0C8FC01200023A822C02118
:1035C000009021A001F0C0FC08E00B4807F012F8C1
:1035D00023A001F0B9FC28A001F0B6FC2C49064854
:1035E00007F029F807B000BDC0A80069C0A8000115
:1035F000B9710008717200084C7400208C02002020
:103600000A20205374617469632049502061646406
:10361000726573732020200A0000000049503A2090
:1036200025642E25642E25642E25640A00000000E2
:103630004E45544D41534B3A2025642E25642E258A
:10364000642E25640A000000476174657761793A49
:103650002025642E25642E25642E25640A00000092
:103660000A20204E6574776F726B204361626C652F
:1036700020697320200A0000202020206E6F742013
:10368000636F6E6E65637465642020200A0000001D
:103690007922000813B5144ADDE9003006CA591A28
:1036A00060EB020041F28833C91A70F1000006D3C2
:1036B0000D4ADDE90010C2E9001003F0DBFC0B4B02
:1036C000DDE900200ACB521A60EB03004FF47A7355
:1036D000D21A70F1000006D30020FEF785F8034AE5
:1036E000DDE9000103C21CBD080200201002002019
:1036F00010B5024803F0D4FD10BD00004C7400204A
:1037000000BFFEE77047000070B5002100230F22C4
:10371000C4781CB3174C246804F4E064C4F5E06476
:10372000C4F30721C1F10404E3B20A4144789C4088
:10373000E1B28478144021430C07210E0E4C057829
:103740006155047804F01F050124AC4005786D1123
:10375000AD0005F1E025C5F8004109E0047804F06A
:103760001F050124AC40054D0678761145F826402A
:1037700070BD00000CED00E000E400E080E100E03E
:1037800002490143024A1160704700000000FA0537
:103790000CED00E07047000029B1064A12680243B0
:1037A000044B1A6004E0034A12688243014B1A601A
:1037B000704700003038024029B1064A12680243BF
:1037C000044B1A6004E0034A12688243014B1A60FA
:1037D000704700001038024029B1064A12680243BF
:1037E000044B1A6004E0034A12688243014B1A60DA
:1037F000704700003838024029B1064A1268024377
:10380000044B1A6004E0034A12688243014B1A60B9
:10381000704700004038024029B1064A126802434E
:10382000044B1A6004E0034A12688243014B1A6099
:10383000704700004438024029B1064A126802432A
:10384000044B1A6004E0034A12688243014B1A6079
:103850007047000024380240F0B500210022002407
:10386000022500260223324F3F6807F00C0121B1E8
:10387000042905D0082937D105E02E4F076036E02E
:103880002D4F076033E02A4F3F1F3F68C7F3805634
:10389000274F3F1F3F6807F03F036EB1264FB7FB2E
:1038A000F3F7DFF88CC0ACF1040CDCF800C0CCF30B
:1038B000881C07FB0CF40CE01E4FB7FBF3F7DFF896
:1038C00070C0ACF1040CDCF800C0CCF3881C07FB22
:1038D0000CF4174F3F1F3F68C7F301477F1C7D0063
:1038E000B4FBF5F7076002E0124F076000BF00BFAE
:1038F0000F4F3F6807F0F0010909104F7A5C076825
:10390000D74047600A4F3F6807F4E051890A0B4FE0
:103910007A5C4768D7408760054F3F6807F460418D
:10392000490B064F7A5C4768D740C760F0BD00007E
:10393000083802400024F40040787D011400002083
:103940007CB50546002400200090019000F0EAF8C4
:1039500000F0007010B10E2420467CBD3D4909885E
:1039600088B26946FEF7B0FD04460CB12046F4E784
:10397000012D36D1019800F4802000282ED0354842
:10398000008800043449086037204860402088607F
:103990000020C860A8020861084600F001F937203D
:1039A000FDF758FB04460CB12046D6E702202A4911
:1039B000086006204860402088600020C8604FF4FE
:1039C00080600861084600F0EBF80620FDF742FB36
:1039D00004460CB12046C0E72046BEE72524204619
:1039E000BBE7019800F4803078B31A4800880004DF
:1039F0001949086037204860402088600020C8606E
:103A00004FF480600861084600F0CAF83720FDF7DF
:103A100021FB04460CB120469FE700200E490860B8
:103A200006204860402088600020C8604FF4806015
:103A30000861084600F0B4F80620FDF70BFB0446C9
:103A40000CB1204689E7204687E7FFE7252420467A
:103A500083E70000580200204075002001490860FB
:103A600070470000382C0140014908607047000091
:103A7000382C01400149086070470000A0802542B1
:103A800001490860704700008C85254200210B4BDE
:103A900002681A601B1D42681A601A1D116821F025
:103AA000F701D0E902231A4303691A4343691A4311
:103AB0001143024A0832116070470000242C014073
:103AC00010B50121C802FFF7B7FE00214FF40060D6
:103AD000FFF7B2FE10BD000001480068C0B2704799
:103AE000102C014001460020034A12680A400AB126
:103AF000012000E000207047342C014001460020E6
:103B0000034A12680A400AB1012000E00020704711
:103B1000342C01400248006800F0030070470000A8
:103B2000002C014008B501460020009002480844DE
:103B300000900098006808BD142C014010B500F0FA
:103B40000DFD10BD29B1064A12680243044B1A60EC
:103B500004E0034A12688243014B1A607047000078
:103B60003C2C014000210A4A116847F6FF6291434C
:103B7000027D83681A4343681A43C3681A43036883
:103B80001A4303691A431143014A11607047000048
:103B9000042C01400148006870470000802C01405F
:103BA0000021094B02681A601A1D11686FF30A019F
:103BB000D0E901231A43C3681A4303691A43114326
:103BC000014A121D11607047082C0140014908602C
:103BD00070470000002C014008B5012000909DF8BE
:103BE000000008BD70B50446002520480068032881
:103BF00002D12725284670BD1C48006838B11B48F3
:103C00000068012803D01948006802282CD1B4F5B7
:103C1000805F02D127252846EDE7B4F5006F13D168
:103C20000120FFF78DFE0546F5B900201049087503
:103C30000860486088604FF40060C8600020086138
:103C40000846FFF78FFF0FE00020FFF779FE0546DB
:103C500055B9002006490875086048608860C8604A
:103C600008610846FFF77EFF2846C4E7540200209B
:103C700028750020F0B5014600200022C04B1B78BB
:103C800081F85630BF4B1B88A1F85430BE4B1B68DF
:103C90001A0E93090B70C2F383034B7002F00303F7
:103CA0008B70B94B1B68C3F30742CA70B64B1B88B5
:103CB000C3F307220A71B44B1A784A715B681A0E73
:103CC0001301CB80B04B5B68C3F30742CB8843EA58
:103CD0001213CB8002F00F030B72AB4B9B88C3F324
:103CE0000722D3094B72C2F380138B72C2F34013C5
:103CF000CB72C2F300130B7300234B73A04B1B68F2
:103D00001BB19F4B1B68012B4FD193071B0D0B6100
:103D10009D4B1A790B6943EA82030B619A4B9B68AE
:103D20001A0E0B6943EA92130B61C2F3C2030B75BF
:103D300002F007034B75944B9B68C3F3074253098A
:103D40008B75C2F38203CB7593075B0F0B768E4B9B
:103D50001B89C3F307220B7E43EAD2130B760B6950
:103D60005B1C0024C1E912340B7ED1E912469B1C76
:103D7000012505FA03F3DF17A4FB035C06FB03C36D
:103D800004FB0733C1E912530C7A0123A3400B65EE
:103D90000027D1E912560B6DA5FB034C06FB03C3AC
:103DA00005FB0733C1E9124336E0754B1B68022B54
:103DB00032D1754B1A7993069B0A0B61724B9B6843
:103DC0001A0E0B6943EA02230B616F4B9B68C3F326
:103DD00007420B6913430B616B4B1B89C3F307222B
:103DE0000B6900245B1C44EB04074FF400760025AC
:103DF000A3FB064C07FB06C603FB05664FF4806574
:103E00000027A4FB053C06FB05C504FB0754C1E9DC
:103E100012344FF400730B65C2F3801301F8193F9D
:103E200093065B0E4B70584B1A7A4B7843EAD213C9
:103E30004B7002F07F038B70534BDB681A0ED30973
:103E4000CB70C2F341130B71C2F382034B71930722
:103E50001B0F8B714C4BDB68C3F307428B7943EA32
:103E600092138B71C2F34013CB7100230B7202F0DB
:103E700001034B72444B9B89C3F30722D3098B7216
:103E8000C2F38013CB72C2F340130B73C2F300135F
:103E90004B73C2F381038B7302F00303CB733A4B72
:103EA0001A7B53080B7401234B74384B1B681A0E92
:103EB000CA741939354B1B68C3F307421402CC8509
:103EC000324B1B88C3F30722CB8D1343CB852F4B7B
:103ED0001A7814060C635B681A0E0B6B43EA0244F3
:103EE0000C632A4B5B68C3F307420B6B43EA022463
:103EF0000C63264B9B88C3F307220B6B13430B63A6
:103F0000224B1A7934235A54204B9B681A0E3523BE
:103F10005A541E4B9B68C3F3074214068C631B4B19
:103F20001B89C3F307228B6B43EA02448C63174B54
:103F30001A7A8B6B43EA02248C63144BDB681A0EEB
:103F40008B6B13438B63114BDB68C3F307423C233A
:103F50005B5C43EA12143C235C5413071C0DCC87B2
:103F60000A4B9B89C3F30722CB8F1343CB87074BA5
:103F70001A7B540840235C54012441235C54F0BD57
:103F80005402002058020020A0740020B0740020C9
:103F900008B500200090FFF71FFE012809D16846F0
:103FA00000F0CAFB08B1FF2008BD0098C0F3432011
:103FB000FAE7FF20F8E710B50424FFF7E9FF04460D
:103FC000042C01D1002010BDFF2C01D10220FAE702
:103FD0000120F8E71CB5002001904FF4C060FFF706
:103FE000CFFB31208DF8000001208DF8010000206A
:103FF0008DF8020001208DF803006846FFF784FB6E
:104000003B208DF8000001208DF801006846FFF785
:104010007BFB00F06DF9FFF753FD00F0BBF9019059
:104020009DF8040010B19DF804001CBD00F032F8AA
:1040300001909DF8040010B19DF80400F5E7002000
:1040400012490875086048608860C86008610846C1
:10405000FFF788FD0E48FFF70DFE01909DF8040064
:1040600040B90B48B0F8540002041046002100F09B
:1040700047FB01909DF8040020B94FF40060FFF762
:10408000B1FD01909DF80400CFE7000028750020E5
:10409000D074002038B5002401200090FFF73AFDCD
:1040A00010B92524204638BD44480068042828D08B
:1040B00000204349086002204860C020886000203A
:1040C000C8604FF4806008610846FFF769FDFDF79E
:1040D0005BF804460CB12046E5E70020FFF722FD1F
:1040E000384908600420FFF71DFD36494860082064
:1040F000FFF718FD334988600C20FFF713FD3149A5
:10410000C8602E48006858B12C480068012807D0C4
:104110002A480068062803D028480068022816D1DB
:104120000020274908600320486040208860002064
:10413000C8604FF4806008610846FFF731FD6946AA
:104140000320FDF763F804460CB12046ABE71B489B
:10415000006804282ED0BDF800001B490860BDF897
:10416000000000041649086009204860C0208860EB
:104170000020C8604FF4806008610846FFF710FD1A
:10418000FDF702F804460CB120468CE70020FFF74B
:10419000C9FC0E4908600420FFF7C4FC0B494860C5
:1041A0000820FFF7BFFC094988600C20FFF7BAFC24
:1041B0000649C8600024204675E70000540200202C
:1041C00040750020B074002058020020A074002028
:1041D00030B58FB004460D464FF0FA511E48FDF73A
:1041E0008DF800211C48FDF7A3F81B48FDF7ACF83B
:1041F0004FF0006000901948019002940020039055
:1042000001200490002005904FF48060069080000B
:10421000079080000890002009904FF440300A90E9
:1042200004200B9003200C904FF400000D908010A0
:104230000E9069460848FDF75BF9012210210648F7
:10424000FDF739F920210448FDF72AF90121024838
:10425000FDF76EF80FB030BD58640240802C01406D
:1042600030B58FB004460D464FF0FA511E48FDF7A9
:1042700045F800211C48FDF75BF81B48FDF764F882
:104280004FF0006000901948019002944020039084
:1042900001200490002005904FF48060069080007B
:1042A000079080000890002009904FF440300A9059
:1042B00004200B9003200C904FF400000D90801010
:1042C0000E9069460848FDF713F9012210210648AF
:1042D000FDF7F1F820210448FDF7E2F8012102483A
:1042E000FDF726F80FB030BD58640240802C014025
:1042F0001CB501210C20FFF74FFA0C22082123489E
:10430000FEF7F4F90C2209212048FEF7EFF90C2200
:104310000A211E48FEF7EAF90C220B211B48FEF782
:10432000E5F90C2211461948FEF7E0F90C220221AA
:104330001748FEF7DBF94FF47060009002208DF80B
:1043400005008DF8040000208DF8060001208DF88E
:10435000070069460D48FEF781F904200090694680
:104360000B48FEF77BF94FF48050009000208DF849
:10437000070069460548FEF771F90121C802FFF7F9
:104380004BFA01218805FFF707FA1CBD000802401F
:10439000000C0240F8B50020009000250024002603
:1043A000002776205F490875002008604860886013
:1043B000C86008610846FFF7D5FB0320FFF706FC3D
:1043C0000120FFF757FB00205749086048608860CC
:1043D000C8604FF4806008610846FFF7E1FBFCF716
:1043E00023FE00909DF8000010B19DF80000F8BD7C
:1043F0004FF4D5704C490860082048604020886020
:104400000020C8604FF4806008610846FFF7C8FBD1
:10441000FCF74AFF00909DF8000020B901204349B5
:104420000860870712E000203F4908603720486095
:10443000402088600020C8604FF480600861084612
:10444000FFF7AEFB3720FCF705FE00900020364951
:10445000086037204860402088600020C8604FF422
:10446000806008610846FFF79BFB3720FCF7F2FDF0
:1044700000909DF80000002851D13BE000202A491F
:10448000086037204860402088600020C8604FF4F2
:10449000806008610846FFF783FB3720FCF7DAFDF0
:1044A00000909DF8000010B19DF800009FE72048A3
:1044B00038431D490860292048604020886000205A
:1044C000C8604FF4806008610846FFF769FBFCF79D
:1044D00081FE00909DF8000010B19DF8000086E775
:1044E0000020FFF71FFB0546012080EAD57080F011
:1044F0000106641C1EB94FF6FF708442BED34FF60E
:10450000FF70844204D31B2000909DF800006EE7EA
:1045100005F08040050002D00220044908609DF8A3
:10452000000064E728750020407500205402002038
:104530000000108010B50748006800F0C05040B17E
:104540000120054908604FF0C25102485830FCF77D
:10455000D5FE10BD006402406802002010B54FF483
:104560008070FFF7CBFA50B10020254908704FF456
:104570008070FFF779FA01202249086037E00220B5
:10458000FFF7BCFA30B10220FFF76EFA02201C4997
:1045900008702CE00820FFF7B1FA30B10820FFF7CF
:1045A00063FA04201649087021E02020FFF7A6FADC
:1045B00030B12020FFF758FA06201149087016E0A4
:1045C0001020FFF79BFA30B11020FFF74DFA0520BD
:1045D0000B4908700BE04FF40070FFF78FFA30B111
:1045E0004FF40070FFF740FA0720054908700021DA
:1045F0004CF23A30FFF7A6FA0148007810BD0000EF
:1046000060020020640200202DE9F0478146144634
:104610001D46DDE90868002700203249087032494C
:1046200008600120314908600020314908600121FB
:1046300040F22A30FFF786FA08FB06F14846FFF7FA
:10464000C7FD0120FFF71CFA2A480068022808D19C
:1046500006020202002320462946FBF7B1FD04466C
:104660000D46254806601020234948604020886098
:104670000020C8604FF4806008610846FFF790FA98
:104680001020FCF7E7FC074617B13846BDE8F08775
:104690004FF0FF301949086008FB06F04860902091
:1046A00088600220C8600020086101204861084637
:1046B000FFF7ECF91048046012200F4948604020D1
:1046C00088600020C8604FF4806008610846FFF7EA
:1046D00067FA1220FCF7BEFC07460FB13846D5E753
:1046E0003846D3E760020020640200205C0200200C
:1046F0002C2C0140540200204075002054750020ED
:1047000070B504460D4600260A4804600720094992
:104710004860402088600020C8604FF480600861D5
:104720000846FFF73DFA0720FCF794FC06463046A2
:1047300070BD00004075002070B50446002514B916
:104740002625284670BD0F48008800040E490860E1
:104750000D204860402088600020C8604FF48060D1
:1047600008610846FFF71CFA0D20FCF773FC0546AC
:104770000DB12846E6E70020FFF7D4F9206028466F
:10478000E0E70000580200204075002010B500242A
:1047900000200A4908600C20486040208860002002
:1047A000C8604FF4806008610846FFF7F9F90C20F3
:1047B000FCF750FC0446204610BD00004075002068
:1047C00070B500256C1E00E0641E1848006838B9FA
:1047D0001748006820B91748007808B9002CF3D1B1
:1047E000002012490860441E00E0641E1248006860
:1047F00000F4005008B1002CF7D1104800680128DF
:1048000005D1FFF7C3FF054600200C4908600CB92D
:1048100005B9042540F2FF50FFF720F9054800785C
:1048200010B10448007870BD2846FCE768020020FB
:104830006402002060020020342C01405C02002051
:1048400070B500256C1E00E0641E1848006838B979
:104850001748006820B91748007808B9002CF3D130
:10486000002012490860441E00E0641E12480068DF
:1048700000F4805008B1002CF7D1104800680128DE
:1048800005D1FFF783FF054600200C4908600CB9ED
:1048900005B9042540F2FF50FFF7E0F8054800781D
:1048A00010B10448007870BD2846FCE7680200207B
:1048B0006402002060020020342C01405C020020D1
:1048C0002DE9F047814615461E46DDE908780024AB
:1048D000002049490870494908600120484908609A
:1048E000002048490860012140F21A30FFF72AF9F8
:1048F00008FB07F14846FFF7B3FC0120FFF7C0F8BB
:1049000041480068022808D1070202020023284615
:104910003146FBF755FC05460E463C480760102023
:104920003A494860402088600020C8604FF48060A9
:1049300008610846FFF734F91020FCF78BFB0446AA
:1049400014B12046BDE8F0873148008800042F49A3
:10495000086037204860402088600020C8604FF41D
:10496000806008610846FFF71BF93720FCF772FBEF
:1049700004460CB12046E5E72448C0F80080172023
:1049800022494860402088600020C8604FF4806061
:1049900008610846FFF704F91720FCF75BFB0446A3
:1049A0000CB12046CEE71948056019201749486028
:1049B000402088600020C8604FF48060086108468D
:1049C000FFF7EEF81920FCF745FB04460CB1204632
:1049D000B8E74FF0FF300F49086008FB07F0486068
:1049E000902088600020C860086101204861084666
:1049F000FFF74CF82046A5E7600200206402002083
:104A00005C0200202C2C0140540200204075002044
:104A100058020020547500207047000001490860CA
:104A200070470000DC0027420CB500200190009088
:104A30003448006840F480303249086000BF314893
:104A4000006800F4003000900198401C019000982C
:104A500018B90198B0F5A04FF1D12A48006800F4C8
:104A6000003010B10120009001E00020009000987B
:104A7000012846D123484030006840F08050214949
:104A8000403108602048006840F440401E490860FA
:104A90001C48083000681B49083108600846006857
:104AA00040F4004008600846006840F4A0500860E8
:104AB0001648091F0860081F006840F08070091F31
:104AC000086000BF0F48006800F000700028F9D0AF
:104AD00040F205700E4908600A480830006820F06E
:104AE00003000849083108600846006840F00200E9
:104AF000086000BF03480830006800F00C00082878
:104B0000F8D10CBD00380240007000401954400735
:104B1000003C0240042808D14FF0E021096941F02F
:104B200004014FF0E022116107E04FF0E021096934
:104B300021F004014FF0E0221161704710B500F040
:104B40006DF910BD30B5154800686422B0FBF2F174
:104B5000481EB0F1807F01D301201BE0481E4FF0BA
:104B6000E022506150170F22002807DA13071D0EAC
:104B70000B4B00F00F04241F1D5503E013071C0E00
:104B8000084B1C5400BF00204FF0E022906107202A
:104B90001061002008B100BFFEE730BD000000201A
:104BA00018ED00E000E400E010B51548006840F49E
:104BB0007000134908601348006840F00100114973
:104BC000086000200F49083108600E4800680E494F
:104BD00008400C4908600D48091D0860081F00685E
:104BE00020F48020091F0860002006490C3108606D
:104BF000FFF71AFF4FF0006001498039086010BDCF
:104C000088ED00E000380240FFFFF6FE103000247F
:104C10007FB504460D4601210220FEF7EDFDADF8FB
:104C200004500020ADF806000294ADF80C0001A974
:104C30000D4800F0B1F8012211460B4800F0A2F82F
:104C40000121094800F081F81D208DF800000120A5
:104C50008DF8010003208DF8020001208DF803007B
:104C60006846FEF751FD7FBD0004004010B50121EC
:104C7000094800F076F8012808D108480268406821
:104C80000A3240F1000005490A60486001210248EB
:104C900000F058F810BD000000040040280000207B
:104CA0007FB504460D4601210420FEF7A5FDADF8B1
:104CB00004500020ADF806000294ADF80C0001A9E4
:104CC0000B4800F069F801221146094800F05AF833
:104CD0001E208DF8000001208DF8010002208DF8C3
:104CE000020001208DF803006846FEF70DFD7FBD30
:104CF0000008004010B501210E4800F032F80128EC
:104D000013D10D480068401C0B4908600846006834
:104D10000A490968884208D1002009490860064903
:104D200008600021034800F010F80121014800F05C
:104D300009F810BD00080040E8010020EC01002047
:104D4000E4010020CA430282704721B1028842F088
:104D50000102028004E002884FF6FE731A400280CE
:104D6000704730B50246002000230024158A05EA6A
:104D70000103958905EA010413B10CB1012000E09B
:104D8000002030BD1AB183890B43838102E08389FF
:104D90008B4383817047000000220288184B9842A1
:104DA0000ED0184B98420BD0B0F1804F08D0164B64
:104DB000984205D0154B984202D0154B984204D129
:104DC0004FF68F731A404B881A43124B984207D004
:104DD000114B984204D04FF6FF431A400B891A43F7
:104DE00002804B68C3620B880385054B984202D052
:104DF000044B984201D18B7A03860123838270474A
:104E00000000014000040140000400400008004090
:104E1000000C0040001000400014004004480068EE
:104E200020B103480068401E014908607047000037
:104E30007802002021B1828942F40052828104E08C
:104E400082894DF6FF731A40828170470246002026
:104E5000B1F5007F00D100BF13880B400BB10120DA
:104E600000E00020704700002DE9FF4705460E4690
:104E70000024A14600BFA046B08900B100BF2C8A23
:104E800024F44054F08804432C82AC8941F20C6035
:104E90008443B08831890843718908430443AC8155
:104EA000AC8A24F44074B0890443AC826846FEF7AF
:104EB000D3FC2048854202D01F48854202D1DDF84C
:104EC0000C9001E0DDF80890A88900F4004040B1A2
:104ED00009EBC90000EB091031684900B0FBF1F79C
:104EE00007E009EBC90000EB091031688900B0FB4D
:104EF000F1F76420B7FBF0F004012009642101FB05
:104F00001078A88900F4004040B1322000EBC800BE
:104F1000B0FBF1F000F00700044308E0322000EBA2
:104F200008106421B0FBF1F000F00F0004432C8165
:104F3000BDE8FF870010014000140140C1F30802E2
:104F40008280704700BFFEE70FB4054B10B503A980
:104F5000044A029800F0E2F810BC5DF814FB00006F
:104F600099850008E00200200FB4084B10B504A991
:104F700002AA039800F0D2F8044602A9002000F02B
:104F800064FC204610BC5DF814FB00004B58000880
:104F900000487047E402002002E008C8121F08C160
:104FA000002AFAD170477047002001E001C1121FAA
:104FB000002AFBD1704700002DE9FF5FDDE90220E8
:104FC000010DDDF838B0024318D044F61050A1F2BC
:104FD000FF3141430D140F98012820D0A5EB0B00A1
:104FE000401C5FEA000A4FF00004474EDFF81C91B6
:104FF000A046504616D5CAF1000728E00F980124B4
:1050000043A2012808D0002100980F9BC0E900218D
:10501000C0E90243BDE8FF9F6FEA0B01F4E7CBF163
:105020000000DEE7074612E0F80707D022463346C5
:1050300040464946FBF773F9804689462246334687
:1050400010461946FBF76BF904460E467F10002FF9
:10505000EAD1DDE90201BAF1000F42464B4602DA1D
:10506000FBF75DF901E0FBF7CCF904460E460022A0
:10507000284BFBF7CBFB03D84FF0FF30014607E08E
:105080000022254B20463146FBF701FBFBF7A6FB30
:10509000102409E0002C0ADB0A220023FBF790F819
:1050A000019B30321A55641E50EA0102F2D1641C91
:1050B000019AC4F1110314440F9A012A03D001226A
:1050C00008430DD10AE0084304D000204FF0110B33
:1050D0000F9080E7A3EB0B056D1E0DE05B4504DD33
:1050E0004FF0000205F1010504E003DA4FF0000281
:1050F000A5F10105002AECD000980F99C0E9023112
:10510000C0E9004586E70000000024400000F03FB1
:10511000300000000000F0430000E03F2DE9FF4FA9
:1051200095B09B468946064600250FE2252877D193
:1051300000242746F84A0121059400E0044316F8AC
:10514000013F203B01FA03F01042F7D130782A28C2
:1051500011D06FF02F033078A0F13002092A16D851
:10516000059A44F0020402EB820203EB420210446F
:10517000761C0590EFE759F8042B0592002A03DA14
:10518000504244F40054059044F00204761C3078F8
:105190002E2816D116F8010F44F004042A280DD049
:1051A0006FF02F023078A0F13003092B09D807EBFC
:1051B000870302EB4303C718761CF3E759F8047B17
:1051C000761C30786C280FD006DC4C2817D0682865
:1051D0000DD06A2814D104E0742810D07A280FD199
:1051E0000DE044F400140AE044F4801401E044F4B7
:1051F00040147278824202D104F58014761C761C29
:10520000307866280BD013DC582877D009DC0028CA
:1052100075D04528F6D04628F4D047281AD19DE10C
:1052200018E0632835D0642879D0652812D195E13B
:10523000702873D008DC6728F1D069286FD06E28F9
:105240000DD06F2806D1B5E073282CD0752875D005
:10525000782874D05A46179990476D1C75E1C4F3AD
:105260000250022809D003280DD0D9F800100428D4
:105270000DD00D6009F1040967E1D9F80010EA17B3
:10528000C1E90052F6E7D9F800100D80F2E70D7081
:10529000F0E719F8041B8DF8001000208DF80100CC
:1052A000EA46012003E059F804AB4FF0FF306107F4
:1052B0004FF0000102D40DE008F101018846B94227
:1052C0000FDA8045F8DB1AF808100029F4D108E05D
:1052D00008F1010188468142FADB1AF8081000291A
:1052E000F6D105985B46A0EB080721463846179A89
:1052F00000F094FA284400EB080507E04DE029E1AE
:105300000DE01AF8010B5A4617999047B8F10108B9
:10531000F7D25B4621463846179A13E142E00A224B
:105320000092C4F302524FF0000A022A08D059F842
:1053300004CB032A4FEAEC710AD00DE029E02AE001
:1053400009F1070121F00702F2E802C1914609E0E4
:105350000FFA8CFC4FEAEC71042A03D14FFA8CFC53
:105360004FEAEC71002907DA0A460021DCF1000C53
:1053700061EB02012D2202E0220504D52B228DF8DB
:105380000420012203E0E20701D02022F7E7904643
:1053900059E00A2102E010220DE010214FF0000A2E
:1053A00000910BE010224FF0000A44F0040408279B
:1053B000009203E008224FF0000A0092C4F3025268
:1053C000022A05D059F804CB0021032A08D009E0AD
:1053D00009F1070121F00702F2E802C1914605E058
:1053E0001FFA8CFC042A01D10CF0FF0C4FF00008CE
:1053F000220728D5702806D0009B83F0100353EABB
:105400000A0305D00EE040228DF80420012208E0B6
:105410005CEA010206D030228DF804208DF80500E8
:1054200002229046009B83F0080353EA0A030AD144
:105430005CEA010201D1620705D530228DF8042013
:105440004FF001087F1E582804D034A003900EA806
:1054500002900DE036A0F9E753466046009AFAF74D
:10546000AFFE84460398825C0298401E0290027050
:105470005CEA0100F0D1029806A9081A00F1200A9E
:10548000600702D524F4803400E00127574502DD8F
:10549000A7EB0A0000E0002000EB0A01009005984D
:1054A0004144401A0590E00306D45B462146179A12
:1054B000059800F0B3F90544002706E001A85A4614
:1054C000C05D179990476D1C7F1C4745F6DBE003D4
:1054D0000CD55B462146179A059800F09FF90544C4
:1054E00004E030205A46179990476D1C0099481ED9
:1054F00000900029F5DC08E0029802995A460078ED
:10550000491C0291179990476D1CBAF10001AAF14C
:10551000010AF1DC65E10000092801003031323375
:1055200034353637383961626364656600000000DF
:1055300030313233343536373839414243444546C9
:105540000000000000F058F90544761C307800286F
:105550007FF4ECAD19B02846BDE8F08F620700D4A7
:10556000062709F1070222F0070CFCE80223E146B6
:1055700003F000485FEA080C02D00FF2702C0DE037
:105580005FEA045C02D50FF2682C07E05FEAC47C96
:1055900002D00FF2602C01E0AFF2700C4FF0FF3838
:1055A00023F00043CDF850C065280CD006DC452818
:1055B00009D046281DD047283DD13DE0662818D0A7
:1055C00067287ED138E00021112F01DB112000E097
:1055D000781CCDE9000106A90EA8FFF7EDFCDDE976
:1055E0000F010E9A03910021009207F1010A049124
:1055F0004DE04FF000400097CDE9011006A90EA83C
:10560000FFF7DAFCDDE90F0203920E9B11990022ED
:10561000DDF80CA00093049211B9791C00EB010A8B
:10562000B7EB0A0004D4C0F1FF3007F1010A04907F
:10563000AAEB0700019044E0012F00DA01270021C6
:10564000112F01DD112000E03846CDE9000106A947
:105650000EA8FFF7B1FCDDE90F010E9A03910021BE
:1056600004910092BA4621070CD40399514500DAFF
:105670008A46BAF1010F05DD009AAAF10101515CD9
:10568000302908D0B84202DA10F1040F06DA0121FD
:10569000CDE9011015E0AAF10101E9E7002805DCD8
:1056A000049901440491AAEB000102E0411C514518
:1056B00000DD8A460499401A401C01904FF00040DA
:1056C0000290200704D40198504501DBCDF80480F6
:1056D00000208DF84F0002980DF14F07B0F1004FF8
:1056E00025D02B200E9002984FF0020800280CDAEB
:1056F000404202902D200E9007E00A210298FAF70E
:10570000FCFE3031029007F8011DB8F10001A8F14C
:105710000108F2DC02980028EFD1791E0E9808707B
:10572000307800F0200040F0450007F8020D12A884
:10573000C01B00F107081498007800B1012000EBAD
:105740000A01019801EBE07105984144401A401E9E
:105750000590E00306D45B462146179A059800F0B1
:105760005DF805441498007818B15A461799904787
:105770006D1CE00324D55B462146179A059800F07E
:105780004DF805441CE00498002807DBDDE903011F
:10579000884203DD0098405C179901E0179930209A
:1057A0005A469047049805F10105401C0490019861
:1057B000401E019004D12E205A46179990476D1C27
:1057C000BAF10001AAF1010ADDDC05E017F8010BCE
:1057D0005A46179990476D1CB8F10001A8F10108CD
:1057E000F4DC5B462146179A0598ABE62D000000D5
:1057F0002B000000200000002DE9F04104460025A8
:105800001E461746880404D405E039462020B047D8
:105810006D1C641EF9D52846BDE8F0812DE9F041E4
:10582000044600251E469046C80301D5302700E0F7
:105830002027880404D505E041463846B0476D1C52
:10584000641EF9D52846BDE8F0810A68531C0B6038
:105850001070704770B504460D4600202071401E40
:10586000E0622946204604F05BFE08B1032070BDCB
:1058700094F82E1294F82F0241EA00204AF655219E
:10588000884201D00220F2E794F86900010694F8FA
:10589000680041EA004194F8670041EA002094F86A
:1058A0006610084320F07F400D49884201D1002056
:1058B000DDE794F88500010694F8840041EA004190
:1058C00094F8830041EA002094F88210084320F005
:1058D0007F400349884201D10020C8E70120C6E784
:1058E00046415400024600E0521C107810B1107876
:1058F0008842F9D1107870470246891E5069801E8F
:10590000884201D8002070479378906A01FB030019
:10591000F9E700002DE9F04780460C46A17EE07EC5
:1059200041EA002010B10020BDE8F087207800F0A7
:105930003F00401E00EB800101EBC0064FF0010963
:10594000002524E01A48405D205C1949495D214446
:10595000497840EA0127B9F1000F11D0FF2E0BD290
:10596000384602F077FB82463146761C38F8110043
:1059700002F070FB824501D00020D5E7B94605E072
:105980004FF6FF70874201D00020CDE76D1C0D2D32
:10599000D8D3207800F0400038B1B9F1000F04D01E
:1059A00038F8160008B10020BEE70120BCE700006F
:1059B0001CB900082DE9F04704468946B9F1000FEB
:1059C00006D1E76817B16069B84215D8012713E01E
:1059D0004946204602F058FE0646022E02D2012019
:1059E000BDE8F087701C08B93046F9E76069B0423D
:1059F00001D93046F4E74F463D4600BF6D1C606953
:105A0000A84204D80225BD4201D90020E8E7294672
:105A1000204602F039FE064606B909E0701C08B1BE
:105A2000012E01D13046DBE7BD42E7D10020D7E7A8
:105A300000BF6FF070422946204605F02DF98046E0
:105A4000B8F1000F08D1B9F1000F05D02A46494638
:105A5000204605F021F98046B8F1000F0BD1E56032
:105A60002069401C78B12069401E2061607940F0B7
:105A70000100607107E0B8F1010F02D14FF0FF3073
:105A800000E0012005462846AAE700002DE9F34F73
:105A900083B0814604980068019002E00198401CA0
:105AA0000190019800782F28F8D0019800785C28A0
:105AB000F4D0D9F81CA000252F4600BF38467F1C23
:105AC00001990C5C202C03DB2F2C01D05C2C00D125
:105AD00032E0FF2D03D3062005B0BDE8F08FE4B21D
